:020000040000FA
:04000000F2EF02F029
:08000800CFEF0CF0056A046E55
:10001000FF0E0426D8A005260000D8A01200030E6B
:10002000016EE70E02D8F4D7016AFE0F006E0000E1
:1000300000D000D0E86A015AD8A01200000600D013
:1000400000D0F5D7106A116A126A136A0A6A0B6A3D
:100050000C6A0D6A09500810071006102CE0200EDB
:10006000F36ED89000360136023603360A360B3668
:100070000C360D3609500D5C08E108500C5C05E1AA
:1000800007500B5C02E106500A5C0FE306500A5E63
:100090000750D8A0073C0B5E0850D8A0083C0C5E67
:1000A0000950D8A0093C0D5ED880103611361236A2
:1000B0001336F32ED6D71200076A066A100E106E9A
:1000C0000134063607360450065E0550D8A0053CBC
:1000D000075E07E2045006260550D8B0053C072607
:1000E000D89000360136102EEBD700501200200EAB
:1000F000106E0A6A0B6A0C6A0D6AD89000A00ED0C6
:1001000006500A260750D8B0073C0B260850D8B036
:10011000083C0C260950D8B0093C0D260D320C3293
:100120000B320A320332023201320032102EE5D78E
:100130001200F86A7F6A7F8E0900F55002E0EE6EC9
:10014000FBD7120015501118E8BE30D015BE17D0DD
:100150001450105CD8A0000CD8A4010C1550115CF0
:10016000D8A0000CD8A4010C1650125CD8A0000C2A
:10017000D8A4010C1750135CD8A0000C010C10502F
:10018000145CD8A0000CD8A4010C1150155CD8A0A8
:10019000000CD8A4010C1250165CD8A0000CD8A4F6
:1001A000010C1350175CD8A0000C010C11AE010C0F
:1001B000000C800E151A1450105C016E19E2016CCF
:1001C00010C00EF014C010F00EC014F011C00EF0EC
:1001D00015C011F00EC015F012C00EF016C012F0CE
:1001E0000EC016F013C00EF017C013F00EC017F0BB
:1001F0001A0E016078D0145276E0006A11500E6E2B
:1002000015180F6E118E158E080E015E08E317C0CB
:1002100000F016C017F015C016F0156AF5D70126C4
:1002200007E0D8901532163217320032012EF9D776
:100230000FAE35D01750135E1650125A1550115A82
:1002400007E2D880000E135612561156800E0E1A71
:10025000006C04E01306000E125A115A040E016ECF
:1002600011660DD012C011F013C012F000C013F0CF
:10027000006A080E105E2DE3012EF2D72AD011BEBF
:1002800008D0D8900036133612361136102EF7D714
:1002900020D018AC26D000AE24D0006A11D0175060
:1002A0001326165012221550112206E31132123273
:1002B00013320032104A0FD018AC13D000AE11D058
:1002C000133E0FD0123E0DD0113E0BD0D8801390AC
:1002D000EDD7106A02D018821068136A126A800E75
:1002E000116E0EAE119E1350120011500C6E1518A7
:1002F0000F6E145053E0105254E0105E7F0E03E274
:10030000102603E24DD010264EE213C00AF012C0B0
:100310000BF00C8E158E180E0E6E136A126A116A8F
:100320000BD017500A5C16500B5811E30B6E0C6A79
:1003300017500A5E0BD004E215500C5CF2E007E3A4
:1003400017500A5E16500B5A15500C5AD8801336A7
:10035000123611360A360B360C360E2EECD711BE7D
:1003600007D010521DE00F3210060E2A0F36E3D7C9
:1003700018AC1FD007E217500A5E16500B5A1550E2
:100380000C5A17E3133E15D0123E13D0113E11D074
:10039000113212321332103E0CD005D0188604D020
:1003A0001884106A02D018821068136A126A800ECC
:1003B000116E0FAE119E1350120011500C6E1518D5
:1003C0000F6E1050D8A414503CE010267E0E03E3AC
:1003D000105E03E338D0105E33E313C00AF012C09E
:1003E0000BF00C8E158E136A126A116A180E0E6EBF
:1003F0000C320B320A3206E3175013261650122223
:10040000155011221132123213320E2EF1D711BEB5
:1004100007D0133612361136105212E010060C3483
:1004200018AC17D016E3133E14D0123E12D0113E72
:1004300010D0D880113212321332103E0AD003D0BD
:100440001884106A02D018821068136A126A800E2B
:10045000116E0FAE119E1350120011C00FF07F0EDF
:10046000105C0E6E32E3118E106A0A6A17080E6E67
:100470000BE2080E0E262BE311C010F012C011F093
:1004800013C012F0136A0CD0080E0E5E08E313C0FE
:100490000AF012C013F011C012F0116AF5D70E263F
:1004A0000E5208E0D89010321132123213320A3252
:1004B0000E2EF8D710BE0BD00FAE10D0D880000E85
:1004C000135612561156105609D0000E02D018823B
:1004D000FF0E106E116E126E136E109E13501200EE
:1004E000126A136A10C000F013C010F000C013F0BD
:1004F00012C000F011C012F000C011F0960E0E6E86
:100500000F6A10AE07D0D880000E1356125611563F
:1005100010560F8E105218E018AC0DD013AE0BD041
:10052000123E09D0113E07D0103E05D0D8801032BF
:10053000113212320E2A080E0E2612C013F011C00C
:1005400012F010C011F015D0116613D0080E0E5E17
:10055000125005E1080E0E5E135011E0136A116E81
:1005600013C012F0136A05D0D89013361236113624
:100570000E0611AEF9D70EC010F00FAE119E13503B
:100580001200506172616D6574726F3A0000697398
:1005900074723A0043414C49425241544520000094
:1005A000533A204D65616E2056616C75653A0000C6
:1005B000205363616C6520466163746F723A00007A
:1005C000434F4D504C4554454400534554204241FF
:1005D0005345564F4C543A00526561647900494E78
:1005E00049540000188C7F6A7F8E19EF0DF0AB6ABA
:1005F000948E8B8C949C19C0AFFF240EAC6E900E21
:10060000AB6E1200ABA202D0AB98AB8812009EA8D2
:10061000FED70001AD6E1200FAD700EEDEF0EF5209
:1006200003E0EE50F4DFFBD712001A9E1CC020F04E
:100630001BC01FF01AC01EF019C01DF012001E6A68
:100640001D6A1C6A010E1B6E1A521DE01E50190213
:10065000F3CF1EF01D501902F3CF1DF0F4501E26EB
:100660001C501902F3CF1CF0F4501D26000E1E2260
:100670001B501902F3CF1BF0F4501C26000E1D2254
:100680001E221A06E1D71200195204E0E5CFEEFF50
:100690001906FAD7120010EE1DF03E6A1BC001F0D9
:1006A0001AC000F0056A1CC004F05CEC00F006C043
:1006B0003FF00A0E3F5C02E3070E3F26300E3F2458
:1006C000E46E1BC001F01AC000F0056A1CC004F003
:1006D0005CEC00F01A6E01C01BF03E2A1B501A1091
:1006E000DDE13EC019F0D0DFEE6A120010EE26F018
:1006F000476A24C003F023C002F022C001F021C0E9
:1007000000F0096A086A076A25C006F022EC00F0CA
:100710000AC048F00A0E485C02E3070E4826300E75
:100720004824E46E24C003F023C002F022C001F08C
:1007300021C000F0096A086A076A25C006F022ECA9
:1007400000F013C024F012C023F011C022F010C03A
:1007500021F0472A2450231022102110CAE147C05B
:1007600019F092DFEE6A120022801E50215C02E234
:1007700021C01EF01E50E926000EEA22ED6A1E522C
:10078000D8B441D01C501B101A10191009E122A036
:1007900002D0300E206E20C0EDFF1FC020F030D000
:1007A0001CC003F01BC002F01AC001F019C000F019
:1007B000096A086A076A1DC006F022EC00F00AC048
:1007C00023F00A0E235C02E3070E2326300E2324B7
:1007D000ED6E1CC003F01BC002F01AC001F019C07E
:1007E00000F0096A086A076A1DC006F022EC00F0F2
:1007F00013C01CF012C01BF011C01AF010C019F089
:100800001E062290BCD7120000EE19F0366A356A37
:10081000346A336AEECF32F031902D0E325C03E150
:100820003180EECF32F0325229E0036A026A016A67
:100830000A0E006E36C009F035C008F034C007F06B
:1008400033C006F077EC00F003C03AF002C039F094
:1008500001C038F000C037F0300E325C3B6E3B50C8
:100860003724336E000E3820346E000E3920356E7A
:10087000000E3A20366EEECF32F0D5D731A009D037
:10088000331E341E351E361E332A000E3422352206
:100890003622120000EE44F043C01BF042C01AF0B2
:1008A0000A0E1C6EF8D600EE4FF04EAE08D02D0E9C
:1008B000EE6ED880000E4B564C564D564E564EC0DE
:1008C00024F04DC023F04CC022F04BC021F00A0EA2
:1008D000256E0CD729C02AF000EE2BF027AE0FD0E2
:1008E000300E295C04E128062D0EEE6E02D02D0E8E
:1008F0002A6ED880000E2456255626562756100EEE
:10090000216E27C01CF026C01BF025C01AF024C0A1
:1009100019F00A0E1D6E28C01EF029C01FF02AC053
:1009200020F022D72550E926000EEA22ED6A288021
:1009300025523DE024502310221021100AE128A066
:1009400003D0300EED6E04D027C0EDFF26C027F097
:100950002BD024C003F023C002F022C001F021C03C
:1009600000F0096A086A076A0A0E066E22EC00F0B7
:100970000AC029F0300E2924ED6E24C003F023C0F4
:1009800002F022C001F021C000F0096A086A076A7B
:100990000A0E066E22EC00F013C024F012C023F001
:1009A00011C022F010C021F025062890C1D71200F6
:1009B00000EE54F04CAE02D02D0EEE6E4EC01CF088
:1009C0004DC01BF04CC01AF04BC019F02EDE20C0F9
:1009D00013F01FC012F01EC011F01DC010F02DEC5E
:1009E00002F010C024F011C023F012C022F0216EDA
:1009F0000A0E256E7BDE4F52D8B4D9D0090E4F5C5B
:100A0000D8B0D5D04EC013F04DC012F04CC011F08C
:100A10004BC010F02DEC02F010C071F011C070F05E
:100A200012C06FF06E6F71C013F070C012F06FC023
:100A300011F06EC010F072EC02F013C075F012C02D
:100A400074F011C073F010C072F04EC013F04DC0BE
:100A500012F04CC011F04BC010F075C017F074C00C
:100A600016F073C015F072C014F0D9EC00F013C08A
:100A70004EF012C04DF011C04CF010C04BF00A0EF9
:100A8000196E4FC01AF01FEC03F01BC010F01CC011
:100A900011F01DC012F01EC013F072EC02F013C072
:100AA00071F012C070F011C06FF010C06EF04EC047
:100AB00013F04DC012F04CC011F04BC010F071C0DB
:100AC00017F070C016F06FC015F06EC014F0DDECBA
:100AD00001F013C075F012C074F011C073F010C0B3
:100AE00072F075C013F074C012F073C011F072C0D0
:100AF00010F02DEC02F010C053F011C052F012C0F3
:100B000051F0506E53AE06D0D880000E505651565C
:100B100052565356896B540E886F8B6B540E8A6FE6
:100B2000AA6B8C0EA96FAAC0EAFFA9C0E9FF8BC00F
:100B3000E2FF8AC0E1FFE65002E0EE6EFCD72E0E27
:100B4000EE6EEF6A300E296E53C027F052C026F0C9
:100B500051C025F050C024F04FC028F0BBDEAC6B74
:100B60002B0EAB6FDD6BAD0EDC6FDDC0EAFFDCC0C2
:100B7000E9FFAAC0E2FFA9C0E1FFE65002E0EE6E85
:100B8000FCD7ACC0E2FFABC0E1FFE65002E0EE6E86
:100B9000FCD7EF6A89C0EAFF88C0E9FFDDC0E2FF49
:100BA000DCC0E1FFE65002E0EE6EFCD7EF6A120017
:100BB00046C04BF000EE4CF040520BE041AE09D085
:100BC000300E465C04E144062D0EEE6E02D02D0E72
:100BD0004B6E43C01CF042C01BF041C01AF040C035
:100BE00019F015EC03F020C013F01FC012F01EC066
:100BF00011F01DC010F02DEC02F010C024F011C057
:100C000023F012C022F0216E44C025F046C026F029
:100C10004BC027F087DE4552D8B4DAD0090E455CC8
:100C2000D8B0D6D043C013F042C012F041C011F08A
:100C300040C010F02DEC02F010C069F011C068F057
:100C400012C067F0666F69C013F068C012F067C029
:100C500011F066C010F072EC02F013C06DF012C01B
:100C60006CF011C06BF010C06AF043C013F042C0CA
:100C700012F041C011F040C010F06DC017F06CC010
:100C800016F06BC015F06AC014F0D9EC00F013C078
:100C900043F012C042F011C041F010C040F00A0E03
:100CA000196E45C01AF01FEC03F01BC010F01CC0F9
:100CB00011F01DC012F01EC013F072EC02F013C050
:100CC00069F012C068F011C067F010C066F043C050
:100CD00013F042C012F041C011F040C010F069C0E2
:100CE00017F068C016F067C015F066C014F0DDECB0
:100CF00001F013C06DF012C06CF011C06BF010C0A9
:100D00006AF06DC013F06CC012F06BC011F06AC0D5
:100D100010F02DEC02F010C04AF011C049F012C0E2
:100D200048F0476E4AAE06D0D880000E4756485667
:100D300049564A56816B4C0E806F836B4C0E826F06
:100D4000A26B840EA16FA2C0EAFFA1C0E9FF83C01D
:100D5000E2FF82C0E1FFE65002E0EE6EFCD72E0E0D
:100D6000EE6EEF6A300E296E4AC027F049C026F0B9
:100D700048C025F047C024F045C028F06AEC04F0D4
:100D8000A46B2B0EA36FD56BA50ED46FD5C0EAFF55
:100D9000D4C0E9FFA2C0E2FFA1C0E1FFE65002E03B
:100DA000EE6EFCD7A4C0E2FFA3C0E1FFE65002E074
:100DB000EE6EFCD7EF6A81C0EAFF80C0E9FFD5C0C4
:100DC000E2FFD4C0E1FFE65002E0EE6EFCD7EF6A2E
:100DD0001200F2CF1BF0F29E7F6A7F8073CF1CF06F
:100DE000800E7F6E744A752A1BBEF28E1200F1DFF0
:100DF0001CC020F0EEDF1CC021F0EBDF1CC022F095
:100E0000E8DF1CC023F01200F2CF1BF0F29E7F6AD5
:100E10007F84550E7E6EAA0E7E6E7F827FB2FED7D5
:100E20007F94800E7F6E744A752A1BBEF28E12006C
:100E30001DC073FFE9DF1EC073FFE6DF1FC073FF35
:100E4000E3DF20C073FFE0D7316A00EE19F0EE5205
:100E500002E0312AFCD7120000EE19F039C0E2FF9F
:100E600038C0E1FFE65002E0EE6EFCD7EF6AECDF3F
:100E700031C03DF03C6A37C03FF036C03EF03FC065
:100E8000EAFF3EC0E9FF39C03FF038C03EF03A50BB
:100E90003E24E16E000E3F20E26E3B503C5C08E2D7
:100EA0003D503A5C05E2E6CFEEFF3C2A3A2AF5D700
:100EB000EF6A120054685368516A506A00EE19F0E4
:100EC00010EE36F0E65002E0EE6EFCD7EF6ABCDFC3
:100ED00031C052F05250515C3AE210EE38F05050AE
:100EE000E126000EE222E7CF57F0575230E010EE35
:100EF00038F05050E126000EE222E7CF57F010EE16
:100F000036F05150E126000EE222E7CF5AF057505A
:100F10005A5C1AE1512A5150525C15E1566A50C090
:100F200055F0586A52C057F05750555C596E58509A
:100F300056585A6E5C6A010E5B6E5B505924536EB4
:100F40005C505A20546E01D0516A502AC3D7120007
:100F5000376A5D0E366E396A5D0E386E75C03AF0CE
:100F600076C03BF079DF00EE77F010EE5DF0E650F2
:100F700002E0EE6EFCD7EF6A12001AC09DF119C0B4
:100F80009CF10101996B9A6B58935895000102EC02
:100F900003F09D8AF28E1200F29EF2BEFDD71990E8
:100FA000010199519A5D0001D8A41980F28E1200B6
:100FB0001990ABB206D0D896010158A5D886000189
:100FC000D8A6198012000101589311EE59F09A51D8
:100FD000E126000EE222E7CF19F09A2B400E9A5D2F
:100FE000000102E301019A6B00011200F29EF2BEC1
:100FF000FDD7E9DF19C01DF0F28E120012001AC0F1
:10100000DAFF19C0D9FF010E1C6E1B5004E0D89006
:101010001C36E82EFCD71C50DF141E6E1E5203E057
:10102000010E1D6E01D01D6A1200010E225C03E14B
:10103000010E236E1DD0020E225C03E1050E236E0D
:1010400017D0030E225C03E1090E236E11D0040EAB
:10105000225C03E1110E236E0BD0050E225C03E12E
:10106000210E236E05D0060E225C02E1290E236EAE
:1010700023C0C2FF010E06EC00F0020E232623C09F
:10108000C2FF0F0E1A6EC20E196E010E1B6EB7DF75
:10109000010E1D5CD8B4F5D70F0EC414246E2A6A55
:1010A000296A2450286E276AC3502724256E000E13
:1010B0002820266E12000201396B386B376B366BB5
:1010C000010E01019E6F0001C90E01019E5D00012C
:1010D0002FE22BC022F0A9DF26C011F025C010F0AE
:1010E00070EC02F013C037F012C036F011C035F0CA
:1010F00010C034F039C213F038C212F037C211F008
:1011000036C210F037C017F036C016F035C015F0F3
:1011100034C014F0DBEC00F013C039F212C038F226
:1011200011C037F210C036F201019E2B0001CBD75F
:10113000176A166A480E156E860E146E39C213F0C1
:1011400038C212F037C211F036C210F075EC01F05F
:1011500013C039F212C038F211C037F210C036F2A3
:1011600039C213F038C212F037C211F036C210F093
:10117000CCC117F0CBC116F0CAC115F0C9C114F02B
:10118000DDEC01F013C02FF012C02EF011C02DF0D5
:1011900010C02CF02B04346E34C035F0366AD89071
:1011A000353636363536363611EEFEF03550E12618
:1011B0003650E222E6CF39F0E6CF3AF0E6CF3BF008
:1011C000E6CF3CF02FC013F02EC012F02DC011F06E
:1011D0002CC010F03CC017F03BC016F03AC015F020
:1011E00039C014F0DDEC01F013C033F012C032F05E
:1011F00011C031F010C030F01200020E0101156F65
:101200001E0E146F176B360E166F17C1EAFF16C14C
:10121000E9FF3A0EEE6EEF6A00EE38F011EECEF016
:10122000E65002E0EE6EFCD7EF6A000143DE0101FA
:101230001D6B010E1C6F1C5153240001756F00EED5
:101240005DF011EECEF0E65002E0EE6EFCD7EF6AF4
:1012500076697EDE0101236B770E226F15C1EAFFEE
:1012600014C1E9FF23C1E2FF22C1E1FFE65002E021
:10127000EE6EFCD7EF6A010E156FE60E146F176B5A
:10128000360E166F17C1EAFF16C1E9FF3A0EEE6E71
:10129000EF6A00EE38F011EECEF0E65002E0EE6EAE
:1012A000FCD7EF6A000106DE01011D6B010E1C6F09
:1012B0001C51535C0001756F00EE5DF011EECEF035
:1012C000E65002E0EE6EFCD7EF6A010E766F40DE6C
:1012D0000101236B770E226F15C1EAFF14C1E9FFEC
:1012E00023C1E2FF22C1E1FFE65002E0EE6EFCD72F
:1012F000EF6A00EEDEF0050EF76E820EF66E99ECE8
:1013000000F0EF6A00010DEC03F000EEDEF012EEEB
:101310001EF0E65002E0EE6EFCD7EF6A0DEC03F033
:101320000D0E0CEC03F00A0E0CEC03F000EEDEF0F8
:10133000050EF76E8E0EF66E99EC00F0EF6A0DEC6E
:1013400003F000EEDEF011EEE6F0E65002E0EE6EA5
:10135000FCD7EF6A0DEC03F00D0E0CEC03F00A0E57
:101360000CEC03F000EE19F012EE1EF0E65002E075
:10137000EE6EFCD7EF6A04EC04F033C0B0F1010E5E
:10138000FD6FE60EFC6FFDC0EAFFFCC0E9FF430EF7
:10139000EE5CD8A46DD1EF52D8A46AD100EE19F05A
:1013A00012EE1EF0E65002E0EE6EFCD7EF6A04EC9F
:1013B00004F0330401019F6F00EEDEF0050EF76EBE
:1013C000940EF66E99EC00F0EF6A00010DEC03F05C
:1013D00000EEDEF012EE1EF0E65002E0EE6EFCD7FC
:1013E000EF6A0DEC03F0530E0CEC03F00D0E0CEC59
:1013F00003F00A0E0CEC03F00201396B386B376B0B
:10140000366B010E01019E6F0001C90E01019E5D48
:10141000000132E2040001019F29226E000105DE75
:1014200026C011F025C010F070EC02F013C01DF2C0
:1014300012C01CF211C01BF210C01AF239C213F014
:1014400038C212F037C211F036C210F01DC217F0C8
:101450001CC216F01BC215F01AC214F0DBEC00F02F
:1014600013C039F212C038F211C037F210C036F290
:1014700001019E2B0001C8D7176A166A480E156E27
:10148000860E146E39C213F038C212F037C211F052
:1014900036C210F075EC01F013C039F212C038F208
:1014A00011C037F210C036F239C213F038C212F050
:1014B00037C211F036C210F0CCC117F0CBC116F014
:1014C000CAC115F0C9C114F0DDEC01F013C03DF242
:1014D00012C03CF211C03BF210C03AF219C213F034
:1014E00018C212F017C211F016C210F03DC217F068
:1014F0003CC216F03BC215F03AC214F075EC01F094
:1015000013C03DF212C03CF211C03BF210C03AF2DF
:1015100000EEDEF012EE1EF0E65002E0EE6EFCD7BA
:10152000EF6A0DEC03F000EEDEF0050EF76EA00E94
:10153000F66E99EC00F0EF6A0DEC03F0FD6BDE0E39
:10154000FC6F39C213F038C212F037C211F036C244
:1015500010F02DEC02F010C04EF011C04DF012C092
:101560004CF04B6E53EC04F0FF6B4F0EFE6FFDC062
:10157000EAFFFCC0E9FFFFC0E2FFFEC0E1FFE6506A
:1015800002E0EE6EFCD7EF6A0DEC03F000EEDEF049
:10159000050EF76EB00EF66E99EC00F0EF6A0DECEA
:1015A00003F0FD6BDE0EFC6F3DC24EF03CC24DF011
:1015B0003BC24CF03AC24BF0030E4F6ED8EC04F035
:1015C000FF6B540EFE6FFDC0EAFFFCC0E9FFFFC0D9
:1015D000E2FFFEC0E1FFE65002E0EE6EFCD7EF6AEC
:1015E0000DEC03F00D0E0CEC03F00A0E0CEC03F006
:1015F00000EEDEF0050EF76EC00EF66E99EC00F010
:10160000EF6A0DEC03F00D0E0CEC03F00A0E0CEC7F
:1016100003F001019F510A0DF3CFFCF0F4CFFDF070
:101620000A0E0001FC25746E000EFD21756E3DC290
:1016300020F03CC21FF03BC21EF03AC21DF018EC75
:1016400007F09FC100F10101016BD890003701370D
:101650000037013701EEFEF00051E9260151EA2280
:101660003AC2EEFF3BC2EEFF3CC2EEFF3DC2EEFFD0
:101670000001010EFD6FE60EFC6FFDC0EAFFFCC02D
:10168000E9FF560EEE5CD8A48DD0EF52D8A48AD0D4
:1016900000EE19F012EE1EF0E65002E0EE6EFCD7FE
:1016A000EF6A04EC04F034C0ADF133C0ACF1ADC16D
:1016B00011F0ACC110F070EC02F013C0FFF012C0DA
:1016C000FEF011C0FDF010C0FCF0176A166A480E5B
:1016D000156E850E146EFFC013F0FEC012F0FDC033
:1016E00011F0FCC010F075EC01F013C019F212C03B
:1016F00018F211C017F210C016F2756A746A19C296
:1017000020F018C21FF017C21EF016C21DF018EC10
:1017100007F000EEDEF0050EF76ECA0EF66E99ECDD
:1017200000F0EF6A0DEC03F0FD6BDE0EFC6F19C2EA
:101730004EF018C24DF017C24CF016C24BF0020E1C
:101740004F6ED8EC04F0FF6B540EFE6FFDC0EAFF45
:10175000FCC0E9FFFFC0E2FFFEC0E1FFE65002E08F
:10176000EE6EFCD7EF6A0DEC03F00D0E0CEC03F0FF
:101770000A0E0CEC03F0176A166A156A8B0E146ECB
:1017800019C213F018C212F017C211F016C210F0ED
:1017900075EC01F013C0CCF112C0CBF111C0CAF14D
:1017A00010C0C9F1010EFD6FE60EFC6FFDC0EAFF2F
:1017B000FCC0E9FF440EEE5CD8A4F0D0EF52D8A4F0
:1017C000EDD0010E226E15EC08F026C0A1F125C067
:1017D000A0F1020E226E15EC08F026C0A3F125C080
:1017E000A2F1030E226E15EC08F026C0A5F125C06B
:1017F000A4F1040E226E15EC08F026C0A7F125C056
:10180000A6F1050E226E15EC08F026C0A9F125C040
:10181000A8F1060E226E15EC08F026C0ABF125C02B
:10182000AAF1230E0CEC03F0FD6BDE0EFC6FA1C1E0
:1018300043F0A0C142F04AEC04F0FF6B440EFE6F8F
:10184000FDC0EAFFFCC0E9FFFFC0E2FFFEC0E1FF10
:10185000E65002E0EE6EFCD7EF6A0DEC03F07C0E72
:101860000CEC03F0FD6BDE0EFC6FA3C143F0A2C1D4
:1018700042F04AEC04F0FF6B440EFE6FFDC0EAFF3D
:10188000FCC0E9FFFFC0E2FFFEC0E1FFE65002E05E
:10189000EE6EFCD7EF6A0DEC03F07C0E0CEC03F05F
:1018A000FD6BDE0EFC6FA5C143F0A4C142F04AEC13
:1018B00004F0FF6B440EFE6FFDC0EAFFFCC0E9FFC1
:1018C000FFC0E2FFFEC0E1FFE65002E0EE6EFCD793
:1018D000EF6A0DEC03F07C0E0CEC03F0FD6BDE0EFA
:1018E000FC6FA7C143F0A6C142F04AEC04F0FF6BC5
:1018F000440EFE6FFDC0EAFFFCC0E9FFFFC0E2FF3F
:10190000FEC0E1FFE65002E0EE6EFCD7EF6A0DECA0
:1019100003F07C0E0CEC03F0FD6BDE0EFC6FA9C136
:1019200043F0A8C142F04AEC04F0FF6B440EFE6F96
:10193000FDC0EAFFFCC0E9FFFFC0E2FFFEC0E1FF1F
:10194000E65002E0EE6EFCD7EF6A0DEC03F07C0E81
:101950000CEC03F0FD6BDE0EFC6FABC143F0AAC1D3
:1019600042F04AEC04F0FF6B440EFE6FFDC0EAFF4C
:10197000FCC0E9FFFFC0E2FFFEC0E1FFE65002E06D
:10198000EE6EFCD7EF6A0DEC03F07C0E0CEC03F06E
:101990000D0E0CEC03F00A0E0CEC03F01200FACF63
:1019A00026F10001EACF25F1E9CF24F101015885A4
:1019B00058A358950001ABB235D0AECF9BF1D89665
:1019C000010158B5D88600012DE4010158819D51CF
:1019D0009C11000107E001D805D09DC1FAFF01016B
:1019E0009C51F96E0001D896010158A1D8860001DA
:1019F00019E401EE59F001019951E926000EEA229D
:101A00009BC1EFFF992B400E995D000102E301019C
:101A1000996B0101589399519A5D000102E101010E
:101A20005883000125C1EAFF24C1E9FF26C1FAFF5E
:101A30001100D08EC18E140E0101566F576B700EBF
:101A4000D36EC00E9B6E170E0F015D6F050E5C6F9F
:101A5000100EC16E9D0EC06E030E056EE80E07ECF3
:101A600000F00F0E1A6EFC0E196E0001BDEC07F0AF
:101A70001A6ACF0E196EF7EC02F00D0E0101576FC6
:101A8000010E056EF40E07EC00F000EEDEF0050E20
:101A9000F76ED80EF66E99EC00F0EF6A00010DECCF
:101AA00003F00D0E0CEC03F00A0E0CEC03F0756A5B
:101AB000FA0E746EE9EC06F01C52D8B461D000EE58
:101AC000DEF0050EF76EDE0EF66E99EC00F0EF6AB2
:101AD0000DEC03F00D0E0CEC03F00A0E0CEC03F011
:101AE0000201196B186B100E176F810E166F756A55
:101AF000746A19C220F018C21FF017C21EF016C275
:101B00001DF0000118EC07F00201196B186B100EA4
:101B1000176F810E166F01019E6B0001060E010109
:101B20009E5D000127E201019F510A0DF3CF3AF1BA
:101B3000F4CF3BF10A0E3A25746E000E3B21756E10
:101B40009F293C6F000E3D6B3D233DC111F03CC110
:101B500010F070EC02F013C020F012C01FF011C0A2
:101B60001EF010C01DF0000118EC07F001019E2BC3
:101B70000001D3D7756AFA0E746E736A04EC07F02D
:101B8000756A746AF7EC06F023C019F222C018F2E5
:101B900021C017F220C016F201019F6B0001060E52
:101BA00001019F5D000130E29FC13EF101013F6BE9
:101BB000D8903E373F373E373F37010E416FFE0E1C
:101BC000406F3E5140273F5141239F510A0DF3CFB3
:101BD00042F1F4CF43F10A0E4225746E000E432108
:101BE000756E0001F7EC06F041C1EAFF40C1E9FF64
:101BF00020C0EEFF21C0EEFF22C0EEFF23C0EEFFAB
:101C000001019F2B0001CAD7176A166A156A8B0E4D
:101C1000146E19C213F018C212F017C211F016C2D6
:101C200010F075EC01F013C0CCF112C0CBF111C073
:101C3000CAF110C0C9F10101AF6BAE6B0001040025
:101C4000010E2B6E5BEC08F033C0B4F132C0B3F17F
:101C500031C0B2F130C0B1F1136A126A400E116E98
:101C6000800E106EB4C117F0B3C116F0B2C115F0FA
:101C7000B1C114F0A2EC00F00108D8B45DD1010E9E
:101C80002B6E5BEC08F033C0B4F132C0B3F131C05D
:101C9000B2F130C0B1F1020E2B6E5BEC08F033C034
:101CA000B8F132C0B7F131C0B6F130C0B5F1030EB2
:101CB0002B6E5BEC08F033C0BCF132C0BBF131C01D
:101CC000BAF130C0B9F1040E2B6E5BEC08F033C0F2
:101CD000C0F132C0BFF131C0BEF130C0BDF1050E60
:101CE0002B6E5BEC08F033C0C4F132C0C3F131C0DD
:101CF000C2F130C0C1F1060E2B6E5BEC08F033C0B0
:101D0000C8F132C0C7F131C0C6F130C0C5F1230EF1
:101D10000CEC03F001013B6BDE0E3A6F300E466EA9
:101D2000B4C143F0B3C142F0B2C141F0B1C140F01F
:101D3000020E446E030E456E0001D8EC05F0010161
:101D40003D6B4C0E3C6F3BC1EAFF3AC1E9FF3DC120
:101D5000E2FF3CC1E1FFE65002E0EE6EFCD7EF6A25
:101D600000010DEC03F07C0E0CEC03F001013B6B69
:101D7000DE0E3A6F300E466EB8C143F0B7C142F086
:101D8000B6C141F0B5C140F0020E446E030E456E7F
:101D90000001D8EC05F001013D6B4C0E3C6F3BC1DE
:101DA000EAFF3AC1E9FF3DC1E2FF3CC1E1FFE65075
:101DB00002E0EE6EFCD7EF6A00010DEC03F07C0E42
:101DC0000CEC03F001013B6BDE0E3A6F300E466EF9
:101DD000BCC143F0BBC142F0BAC141F0B9C140F04F
:101DE000020E446E030E456E0001D8EC05F00101B1
:101DF0003D6B4C0E3C6F3BC1EAFF3AC1E9FF3DC170
:101E0000E2FF3CC1E1FFE65002E0EE6EFCD7EF6A74
:101E100000010DEC03F07C0E0CEC03F001013B6BB8
:101E2000DE0E3A6F300E466EC0C143F0BFC142F0C5
:101E3000BEC141F0BDC140F0020E446E030E456EBE
:101E40000001D8EC05F001013D6B4C0E3C6F3BC12D
:101E5000EAFF3AC1E9FF3DC1E2FF3CC1E1FFE650C4
:101E600002E0EE6EFCD7EF6A00010DEC03F07C0E91
:101E70000CEC03F001013B6BDE0E3A6F300E466E48
:101E8000C4C143F0C3C142F0C2C141F0C1C140F07E
:101E9000020E446E030E456E0001D8EC05F0010100
:101EA0003D6B4C0E3C6F3BC1EAFF3AC1E9FF3DC1BF
:101EB000E2FF3CC1E1FFE65002E0EE6EFCD7EF6AC4
:101EC00000010DEC03F07C0E0CEC03F001013B6B08
:101ED000DE0E3A6F300E466EC8C143F0C7C142F005
:101EE000C6C141F0C5C140F0020E446E030E456EFE
:101EF0000001D8EC05F001013D6B4C0E3C6F3BC17D
:101F0000EAFF3AC1E9FF3DC1E2FF3CC1E1FFE65013
:101F100002E0EE6EFCD7EF6A00010DEC03F0400E1C
:101F20000CEC03F00D0E0CEC03F00A0E0CEC03F0BD
:101F3000C80E06EC00F090D6D8EC07F019A006D039
:101F40000F0E1A6EFC0E196EBDEC07F0CCEC07F00C
:101F500019A03CD0F6EC07F01DC0CDF10101CD5128
:101F600000010CEC03F00D0E0101CD5D00011AE043
:101F7000010E0101536FCE0E526F010E556FCE0E42
:101F8000546F53C1EAFF52C1E9FF55C1E2FF54C18A
:101F9000E1FFE65002E0EE6EFCD7CDC1EEFFEF6A46
:101FA000000113D00D0E0101CD5D00010DE1FDEC2E
:101FB00008F0010E0101536FCE0E526F53C1EAFFBC
:101FC00052C1E9FFEE6AEF6A0001C0D737D60300BD
:021FD000FED73A
:020000040030CA
:040000001D097B1C3F
:020005008990E0
:060008000FC00FE00F40E5
:00000001FF
